:060000000A128A11982F7C
:100E9C004A344134563445344434F100831203133C
:100EAC0008148810710886000815F930F0006400E9
:100EBC00F00B5D2F612F64008312031308110800DF
:100ECC00F1008312031308108810710886000815AE
:100EDC00F930F0006400F00B702F742F6400831253
:100EEC0003130811080038300A128A1166270A12F7
:100EFC008A110C300A128A1166270A128A110130E3
:100F0C000A128A1166270A128A1180300A128A1173
:100F1C0066270A128A1106300A128A1166270A12EB
:100F2C008A1108000A128A114E270A128A11F90036
:100F3C000A128A114F270A128A11FA000A128A1110
:100F4C0050270A128A11FB000A128A1151270A1221
:100F5C008A11FC000A128A1152270A128A11FD000A
:100F6C0083010A128A11BA2FF701F80183160313B1
:100F7C00860188017230840079088000840A7A081E
:100F8C008000840A7B088000840A7C088000840A24
:100F9C007D0880000A128A1179270A128A11F7013A
:100FAC00F80100307802063003197702031CDF2F9A
:100FBC00E02FE22FFC2FFC2F7708723E84000008F4
:100FCC000A128A1153270A128A110130F7070318E3
:100FDC00F80A0030F807003078020630031977025F
:100FEC00031CF92FFA2FE22FFC2FFC2FFC2F0A12D7
:040FFC008A1100282E
:00000001FF
