:060000000A128A118F2F85
:100EE8003F3406345B344F3466346D347D34073414
:100EF8007F346F347E088A007F0882007E270A12BA
:100F08008A118000840A04087D0603190034FF0A48
:100F18000319FE0A822F83133630FD000730FE00C6
:100F28007430FF002C3084000A128A1182270A12BA
:100F38008A1183010A128A11A12F83120313AA01AD
:100F4800AB01831603138601203084002C30F00097
:100F58000408F1000A30F2007008840083130008C6
:100F6800F300F00A7108840073088000F10AF20B9C
:100F7800B02FBE2F83120313AA01AB012B08803AAE
:100F8800FF0080307F02031DCB2F0A302A02031C8A
:100F9800CE2FCF2FD12FBE2FBE2F831203132A0897
:100FA800203E84008313000886000330F200883056
:100FB800F1005630F000F00BDF2FF10BDF2FF20BB2
:100FC800DF2F013083120313AA070318AB0A00307E
:100FD800AB072B08803AFF0080307F02031DF62FF5
:100FE8000A302A02031CF92FFA2FD12FBE2FBE2F49
:080FF800BE2F0A128A11002825
:00000001FF
