:060000000A128A11B32F61
:100F660083010A128A11B72F831603138601BB2F3A
:100F76000E308312031386000330F2008830F1002E
:100F86005630F000F00BC52FF10BC52FF20BC52F15
:100F96000B308312031386000330F2008830F10011
:100FA6005630F000F00BD52FF10BD52FF20BD52FC5
:100FB6000D308312031386000330F2008830F100EF
:100FC6005630F000F00BE52FF10BE52FF20BE52F75
:100FD60007308312031386000330F2008830F100D5
:100FE6005630F000F00BF52FF10BF52FF20BF52F25
:0A0FF600BB2FBB2F0A128A1100283E
:00000001FF
